:020000022000DC
:1070000000000420197202000172020003720200E3
:1070100005720200077202000972020000000000FF
:107020000000000000000000000000000B720200E1
:107030000D720200000000000F72020011720200C7
:10704000594A030013720200F957030069A20200B3
:107050001372020013720200F15603001372020051
:107060001372020013720200137202001372020004
:1070700013720200137202001372020013720200F4
:1070800013720200B98B0300137202001372020024
:1070900013720200137202008DE3030013720200E8
:1070A00013720200137202001372020013720200C4
:1070B00013720200137202000000000000000000C2
:1070C00013720200137202001372020013720200A4
:1070D0001372020013720200137202001372020094
:1070E000137202001372020013720200000000000B
:1070F0000000000013720200000000001372020082
:10710000000000000000000000000000000000007F
:10711000000000000000000000000000000000006F
:10712000000000000000000000000000000000005F
:10713000000000000000000000000000000000004F
:10714000000000000000000000000000000000003F
:10715000000000000000000000000000000000002F
:10716000000000000000000000000000000000001F
:10717000000000000000000000000000000000000F
:1071800000000000000000000000000000000000FF
:1071900000000000000000000000000000000000EF
:1071A00000000000000000000000000000000000DF
:1071B00000000000000000000000000000000000CF
:1071C00000000000000000000000000000000000BF
:1071D00000000000000000000000000000000000AF
:1071E000000000000000000000000000000000009F
:1071F000000000000000000000000000000000008F
:10720000FEE7FEE7FEE7FEE7FEE7FEE7FEE7FEE756
:10721000FEE7FEE700F002B8FFF7FCBF0F484FF0B3
:107220000701884385460E4880470E48016841F4AF
:1072300070010160BFF34F8FBFF36F8F00F01AB87A
:1072400009480A490A4A884207D0521A05D00378E9
:1072500001300B700131013AF9D170470000042070
:1072600079B5020088ED00E0ACF00300182400209E
:107270002C2400203A493B480A1A02D007229143A5
:107280008D46394939480A1A06D00722914381F3BD
:107290000988022282F3148835483649364A00F0BC
:1072A00041F836483649374A00F03CF83648374905
:1072B000374A00F037F837483749384A00F032F893
:1072C00037483849384A00F02DF838483849394AA3
:1072D00000F028F838483949394A00F023F839488D
:1072E0003949002200F036F838483949002200F0C8
:1072F00031F838483849091A17F008FD374A9047DD
:1073000025482649884205D00268043003B49047D6
:1073100003BCF7E700208646EC4600200021304AF7
:107320009047FEE7884214D0521A12D003460B430E
:1073300013430324234206D1036804300B60043155
:10734000043AF9D17047037801300B700131013AEA
:10735000F9D17047884202D002700130FAE77047D5
:107360000000042000E003200000042000000420AE
:10737000283B04002C240020EC250020E4730200AC
:10738000E473020038EF0300283B04002C240020A3
:107390002C240020C0F00300C0F00300C0F0030064
:1073A000C0F00300C0F00300C0F00300C0F0030011
:1073B000C0F00300283B0400E83C0400EC2500205A
:1073C000EC250020EC2500207C3800207C380020B3
:1073D0007C3800207C3800207C580020417202005C
:0473E000158A020008
:1073E40074DF704700BF184676DF704700BF184649
:1073F40077DF704700BF184678DF704700BF184634
:107404007ADF704700BF18467CDF704700BF18461C
:1074140088DF704700BF184689DF704700BF1846F1
:107424008EDF704700BF18468FDF704700BF1846D5
:10743400ADDF704700BF1846B5DF704700BF184680
:1074440000B585B00190019B002B0AD0074B43F097
:1074540001030393019B9B010293039B02989847AA
:1074640000E000BF05B05DF804FB00BFF0F80300C6
:1074740000B583B00190019B002B0AD04FF47A70C1
:10748400FFF7DEFF019B013B0193019B002BF5D12C
:1074940000E000BF03B05DF804FB000000B583B05A
:1074A40003460091ADF80630BDF80630009A19463F
:1074B400034810F003FA00BF03B05DF804FB00BFFB
:1074C400EFBEADDE00B583B00D4A0E4BD31ADB0818
:1074D4001B0443F003030C49184616F023F80AF082
:1074E40015FB0190019B0093009B002B04D0074ADD
:1074F4006521009810F0E2F900BF03B05DF804FBC9
:10750400FCEF0300CCEF0300D4F00300E4F003002D
:1075140000B585B003468DF807309DF80730002B81
:1075240002D0FFF7CFFF0EE00321094805F056FA19
:107534000390039B0293029B002B04D0054A712104
:10754400029810F0BBF900BF05B05DF804FB00BF62
:1075540010260020E4F0030000B583B001900198E8
:107564000AF090FD01980BF02FF901980AF0EEFD56
:10757400019B1B780D2B02D10020FFF7C9FF00BF30
:1075840003B05DF804FB000000B583B001900091E6
:10759400009B1B881A4640F677239A420DD1094A6C
:1075A400094BD31ADB081B0443F00300009B9B88A0
:1075B4001A46064915F0C4FF00E000BF00BF03B03F
:1075C4005DF804FBFCEF0300CCEF03006CF1030057
:1075D40086B08DED010AD8238DF817309DF9173048
:1075E40007EE903AF8EEE77A9DED017A77EE677A46
:1075F400F0EEE77ACDED047A0123039324E0164AF2
:10760400039B134493F9003007EE903AF8EEE77ABF
:107614009DED017A77EE677AF0EEE77ACDED027AA6
:107624009DED027ADDED047AB4EEE77AF1EE10FA1C
:1076340007D5029B0493084A039B13441B788DF8D7
:107644001730039B01330393039B082BD7D99DF970
:107654001730184606B07047C8F0030000B587B06D
:107664000190914B1B884FF6FF72934206D08F4BCB
:107674001B7883F00103DBB2002B0BD08C4A8D4BBB
:10768400D31ADB081B0443F003038B49184615F097
:1076940049FF05E1844B1B880DF109020DF10A0134
:1076A4001846FFF7BDFE0490049B002B0CD0804AC3
:1076B400804BD31ADB081B0443F00103049A7F496F
:1076C400184615F03DFFEBE09DF90A3007EE903ABD
:1076D400F8EEE77ACDED037A794BD3ED007A9FED9E
:1076E400797A27EE877ADDED037ADFED776A67EE44
:1076F400A67A77EE277A724BC3ED007A6C4A6D4B0B
:10770400D31ADB081B0443F003009DF90A301A4620
:107714006B4BD3ED007AB2EE047A67EE877AFDEE16
:10772400E77A17EE903A694915F01BFF4FF0000312
:107734000593634BD3ED007A9FED657AF4EEC77A37
:10774400F1EE10FA14DD4FF03F430593584A594BBC
:10775400D31ADB081B0443F00303DDED057AFCEECA
:10776400E77A17EE902A5B49184615F0E9FE1DE00A
:10777400534BD3ED007A9FED587AF4EEC77AF1EECD
:1077840010FA13D54FF07E530593494A494BD31A47
:10779400DB081B0443F00303DDED057AFCEEE77A16
:1077A40017EE902A4D49184615F0CAFE4C4B93ED3E
:1077B400007ADDED057A77EE277A494BC3ED007A3E
:1077C400474BD3ED007AB2EE007AF4EEC77AF1EECD
:1077D40010FA4CBF01230023DBB283F00103DBB2B8
:1077E400002B11D13E4BD3ED007ABBEE047AF4EEBC
:1077F400C77AF1EE10FA4CBF01230023DBB283F009
:107804000103DBB2002B0FD0354BD3ED007AB2EE7F
:10781400007AF4EEC77AF1EE10FA02D5304B1B6809
:1078240003E04FF0824300E02E4B2D4A13602C4BB3
:10783400D3ED007AB0EE670AFFF7CAFE03468DF86F
:107844000B301B4A1B4BD31ADB081B0443F0030009
:10785400234BD3ED007AB2EE047A67EE877AFDEE1D
:10786400E77A17EE902A9DF90B301F4915F079FE3F
:107874000D4B1B889DF90B2019460320FFF7B8FD1B
:107884000490049B002B0BD0094A0A4BD31ADB0843
:107894001B0443F00103049A1449184615F050FEE2
:1078A40007B05DF804FB00BF70240020582A0020B4
:1078B400FCEF0300CCEF03008CF10300C0F10300E4
:1078C40074240020D0CCCC3D6666663FE0F1030012
:1078D400000090C210F2030000009CC240F20300BA
:1078E400542A00200000A0C170F20300B0F203008B
:1078F40010B590B00390A84B1B884FF6FF729342CB
:107904000BD1A64AA64BD31ADB081B0443F003038E
:10791400A449184615F006FE3BE106AB00221A60A6
:107924005A600023ADF816300DF1160307930223B5
:10793400ADF81830984B1B889B4AD18806AA184684
:10794400FFF776FD0F900F9B002B17D0934A944BB3
:10795400D31ADB081B0443F001030F9A934918461A
:1079640015F0EEFD8D4A8E4BD31ADB081B0443F051
:1079740002038F49184615F0D5FD0AE1BDF816300B
:1079840003F00103002B0BD1844A854BD31ADB0887
:107994001B0443F003038749184615F0C3FDF8E0C0
:1079A4000DF12A020BA90DF12E03184601F0A1FADC
:1079B40003468DF83B309DF83B30002B7DD0774A51
:1079C400774BD31ADB081B0443F00300BDF92E30B8
:1079D4001946BDF92C301C46BDF92A301A46764B9F
:1079E4001B880193009223460A46744915F0E3FD6F
:1079F400714B1B88ADF82030BDF92E30ADF8223024
:107A0400BDF92C30ADF82430BDF92A30ADF826305C
:107A14000023ADF8283008AB1946634816F0EEFF92
:107A24000F900F9B002B23D00F9B082B20D00F9B74
:107A3400132B1DD00F9B112B1AD00F9B0C2B17D07F
:107A4400564A574BD31ADB081B0443F001030F9A21
:107A54005B49184615F074FD0F9B0C930C9B002B8F
:107A640023D0584A40F20D110C980FF027FF1CE068
:107A74000F9B0C2B0BD1494A494BD31ADB081B042F
:107A840043F002035049184615F04CFD0EE0434AFA
:107A9400434BD31ADB081B0443F00303464A128802
:107AA4004A49184615F04CFD00E000BF424B1B88C4
:107AB40001339AB2404B1A806BE0384A384BD31AE0
:107AC400DB081B0443F001034149184615F02AFD65
:107AD400394B1B88ADF820300023ADF82230002349
:107AE400ADF824300023ADF826300023ADF828305B
:107AF40008AB19462C4816F081FF0F900F9B002B02
:107B040023D00F9B082B20D00F9B132B1DD00F9B32
:107B1400112B1AD00F9B0C2B17D0204A204BD31AB1
:107B2400DB081B0443F001030F9A2549184615F09E
:107B340007FD0F9B0D930D9B002B23D0214A4FF47F
:107B440096710D980FF0BAFE1CE00F9B0C2B0BD115
:107B5400124A134BD31ADB081B0443F002031D49DA
:107B6400184615F0DFFC0EE00C4A0D4BD31ADB0867
:107B74001B0443F00303104A12881749184615F0F2
:107B8400DFFC00E000BF0C4B1B8801339AB20A4BA8
:107B94001A8010B010BD00BF70240020FCEF030059
:107BA400CCEF0300D4F20300442A002000F30300C6
:107BB4001CF3030050F30300522A00208CF303004B
:107BC400B0F30300E4F00300D4F3030008F403006B
:107BD40024F4030040F4030078F4030000B585B0F6
:107BE40010F01CFA0390039B0293029B002B05D018
:107BF400154A40F2411102980FF060FE134A012128
:107C0400134810F049FA0390039B0193019B002B46
:107C140005D00D4A4FF4A27101980FF04FFE0D4AA2
:107C240001210D4810F038FA0390039B0093009B48
:107C3400002B05D0044A40F2471100980FF03EFE95
:107C440000BF05B05DF804FBE4F00300F578020022
:107C5400C0F0030061760200C4F0030000B589B0EF
:107C64009DF80430012262F303038DF804309DF87B
:107C74000430012262F307138DF8043001AB0C22A7
:107C840022491846FFF7C0FB0790079B0693069B03
:107C9400002B05D01E4A4FF4A97106980FF00EFE72
:107CA4000020FFF7A9FB0790079B0593059B002B7A
:107CB40005D0174A40F2551105980FF0FFFD02ABAD
:107CC40008220021184617F099F85023ADF808301F
:107CD400A023ADF80A300023ADF80C304FF4C8737C
:107CE400ADF80E3002AB1846FFF78AFB0790079BEE
:107CF4000493049B002B05D0054A4FF4AF710498FC
:107D04000FF0DCFD00BF09B05DF804FB9CF4030038
:107D1400E4F0030000B585B01749184807F0DAFE0F
:107D24000390039B0293029B002B05D0144A4FF44B
:107D3400B37102980FF0C2FD4121104807F0F5FE1F
:107D44000390039B0193019B002B05D00C4A40F246
:107D5400691101980FF0B2FD0A4A0B4BD31ADB08E4
:107D64001B0443F0030341220849184615F0E8FBBD
:107D740000BF05B05DF804FB8D750200F0250020FE
:107D8400E4F00300FCEF0300CCEF0300ACF40300C9
:107D940000B583B00190054A4FF4B87101980FF013
:107DA4008DFD00BF03B05DF804FB00BFE4F00300E9
:107DB40000B585B0002301930C4B019301AB194628
:107DC4000B4807F087FF0390039B0293029B002B51
:107DD40005D0084A4FF4BD7102980FF06FFD0648B4
:107DE40016F066FD00BF05B05DF804FB957D02004A
:107DF40004260020E4F00300442A002000B585B0E6
:107E04000190019B1B78002B11D10B4B1B883B214C
:107E14001846FFF7E9FA0390039B0293029B002B99
:107E240005D0064A4FF4C67102980FF047FD00BF13
:107E340005B05DF804FB00BF70240020E4F00300EB
:107E440000B583B00190054A4FF4C97101980FF051
:107E540035FD00BF03B05DF804FB00BFE4F0030090
:107E640000B58BB001AB1C220021184616F0C6FFEA
:107E7400002301934FF4A03302934FF4F0230393B0
:107E840003238DF810300023ADF8123000238DF851
:107E940014300C4B06930C4B079301AB184605F0BA
:107EA4005FF80990099B0893089B002B05D0074AAB
:107EB40040F2A51108980FF001FD00BF0BB05DF86A
:107EC40004FB00BF017E0200457E0200E4F00300D3
:107ED40000B585B0002002F0B5FF0390039B029328
:107EE400029B002B05D0364A4FF4D77102980FF04D
:107EF400E5FC344B1B884FF6FF72934224D1324B7E
:107F040093F854301846FFF76BFA0390039B002B49
:107F14000FD0039B082B0CD02C4A2D4BD31ADB0813
:107F24001B0443F00103039A2A49184615F008FB81
:107F34000AE0264A264BD31ADB081B0443F003034A
:107F44002549184615F0EEFA244B184610F036F978
:107F54000390039B0193019B002B05D0184A4FF417
:107F6400E07101980FF0AAFC1C4B00224FF4702121
:107F7400184610F0CBF80390039B0093009B002B52
:107F840005D00F4A4FF4E27100980FF097FC144BA0
:107F940001221A700D4A0E4BD31ADB081B0443F05E
:107FA40003031049184615F0BDFA15F045FB0346C6
:107FB400002BFAD100BF00BF05B05DF804FB00BF81
:107FC400E4F003007024002010260020FCEF0300DE
:107FD400CCEF0300D4F40300F8F4030030240020B1
:107FE400EC2500201CF5030000B585B003468DF890
:107FF40007309DF80730002B1CD0032B1DD1124AEB
:10800400124BD31ADB081B0443F003031049184630
:1080140015F088FA022002F015FF0390039B0293E7
:10802400029B002B0BD00B4A4FF4EA7102980FF01D
:1080340045FC04E0FFF74CFF02E000BF00E000BF96
:1080440000BF05B05DF804FBFCEF0300CCEF0300B8
:108054005CF50300E4F0030010B590B003900291C6
:1080640000230F93039B1B88562B00F315823B2B95
:108074000BDA212B00F0D081212B00F30D82102B81
:1080840000F09480112B3FD006E23B3B1B2B00F207
:10809400038201A252F823F0518402009D8402005D
:1080A4009D8402009D8402009D8402009D84020040
:1080B4009D8402009D8402009D8402009D84020030
:1080C4009D8402009D8402009D8402009D84020020
:1080D4009D8402009D8402009D8402009D84020010
:1080E4009D8402009D8402009D8402006B82020034
:1080F4009D8402009D8402009D8402009D840200F0
:10810400A183020077840200924A934BD31ADB08BE
:108114001B0443F00300039B9B881A46039B1B7AB2
:108124008E4915F01EFA8E4B4FF6FF721A808D4B56
:1081340000221A808C4B184610F040F80F900F9BC9
:108144000893089B002B05D0884A40F2EB1108984D
:108154000FF0B4FB864B184610F030F80F900F9BCD
:108164000793079B002B05D0804A40F2ED11079836
:108174000FF0A4FB7A4B1B881846FFF74DF90F90BC
:108184000F9B002B0ED00F9B082B0BD0714A724B08
:10819400D31ADB081B0443F001030F9A75491846F0
:1081A40015F0CEF9744B00221A707EE1694A6A4BCD
:1081B400D31ADB081B0443F00300039B9B881A4675
:1081C4006E4915F0BDF9072002F03CFE0F900F9B9D
:1081D4000693069B002B05D0644A40F2F9110698D9
:1081E4000FF06CFB039B9A885D4B1A805C4B1B88D9
:1081F4001946634807F090FD0F900F9B0593059B6C
:10820400002B05D0594A4FF4FE7105980FF056FB28
:10821400544B00221A804F4A4F4BD31ADB081B04DD
:1082240043F00303574AD2885749184615F088F992
:108234004B4B1B88002200211846FFF7E9F80F90EA
:108244000F9B002B0BD0434A434BD31ADB081B0470
:1082540043F001030F9A4D49184615F071F9464B46
:1082640000221A7021E13B4A3B4BD31ADB081B0462
:1082740043F00300039BDB881946039B1B8A1C46BF
:10828400039B1B8A012B03D9039BDB7C1A4600E06A
:108294000022039B1B8A002B02D0039B9B7C00E0E3
:1082A40000230193009223460A46394915F083F9C5
:1082B400039BDA88334BDB889A423CD1039B1B8AAD
:1082C400012B38D9039B9B7C012B34D1214A224BAF
:1082D400D31ADB081B0443F003032E49184615F098
:1082E40021F9214B00224FF4005118460FF00EFFE4
:1082F4000F900F9B0C930C9B002B05D01B4A4FF443
:1083040005710C980FF0DAFA194B00224FF4005162
:1083140018460FF0FBFE0F900F9B0B930B9B002B4B
:1083240005D0124A40F216210B980FF0C7FA124BEF
:1083340001221A70B9E0074A074BD31ADB081B0461
:1083440043F003030F4AD2881349184615F0F8F88E
:10835400ABE000BFFCEF0300CCEF030070F50300BB
:1083640070240020522A002030240020E4F003006E
:1083740050240020A0F50300582A0020C8F503006B
:1083840004260020442A0020E4F5030004F6030038
:1083940030F6030064F6030088F60300444A454BB4
:1083A400D31ADB081B0443F00300039BDB881A4643
:1083B400414915F0C5F8039B9B8841211846FFF7F6
:1083C4003BF80F900F9B002B68D0394A394BD31AD6
:1083D400DB081B0443F001030F9A3849184615F0D3
:1083E400AFF80F9B082B0BD1314A324BD31ADB0861
:1083F4001B0443F002033249184615F093F84DE08C
:108404000F9B0D930D9B002B48D02E4A40F22D213B
:108414000D980FF053FA41E000238DF8103000233B
:108424008DF81130039B9B8804AA11461846FEF769
:10843400FBFF0F900F9B0993099B002B30D0214A1F
:1084440040F2392109980FF039FA29E0039B9B88FF
:1084540013211846FEF7C8FF0F900F9B0A930A9B3F
:10846400002B1FD0174A4FF410710A980FF026FA08
:1084740018E0039B9B8813211846FEF7B5FF0F9065
:108484000F9B0E930E9B002B0ED00E4A40F24721F9
:108494000E980FF013FA07E000BF06E000BF04E0F7
:1084A40000BF02E000BF00E000BF00BF10B010BD7D
:1084B400FCEF0300CCEF0300C0F60300E8F6030072
:1084C4000CF70300E4F0030000B585B03D4B1B88B6
:1084D4004FF6FF72934201D1022300E007231846AE
:1084E40002F0B0FC0390039B0293029B002B05D087
:1084F400354A40F2552102980FF0E0F9314B1B88C0
:108504004FF6FF72934222D10321304804F066FAF9
:108514000390039B002B0FD0039B082B0CD02C4AF9
:108524002C4BD31ADB081B0443F00103039A2A499A
:10853400184615F005F80AE0254A264BD31ADB083D
:108544001B0443F003032549184614F0EBFF244BA6
:1085540018460FF033FE0390039B0193019B002BFD
:1085640005D0194A40F2672101980FF0A7F91C4B76
:1085740000224FF4005118460FF0C8FD0390039BEE
:108584000093009B002B05D00F4A40F26B2100980A
:108594000FF094F9134B00221A700D4A0D4BD31AA5
:1085A400DB081B0443F003030F49184614F0BAFF19
:1085B40015F042F80346002BFAD100BF00BF05B006
:1085C4005DF804FB70240020E4F003001026002072
:1085D400FCEF0300CCEF030040F7030068F703004F
:1085E40030240020EC25002080F7030000B587B07C
:1085F40015F0EAFD0590059B0493049B002B05D020
:10860400164A40F2762104980FF058F9002301939A
:1086140001AB1946012015F0EDFE0590059B03936F
:10862400039B002B05D00D4A40F2792103980FF0EB
:1086340045F901AB184615F0FBFF0590059B029325
:10864400029B002B05D0054A40F27B2102980FF0D3
:1086540035F900BF07B05DF804FB00BFE4F0030088
:1086640000B587B003468DF807309DF80730043B0A
:108674000B2B79D801A252F823F000BFB786020071
:108684006D8702006D870200E38602006D87020099
:108694006D870200B18602006D8702006D870200BB
:1086A4006D8702001587020031870200FFF710FC76
:1086B4005FE0324B1B8813211846FEF795FE0590A8
:1086C400059B082B52D0059B0393039B002B4DD095
:1086D4002B4A40F28B2103980FF0F0F846E0274B29
:1086E4001B884FF6FF72934242D1264804F0B9FA30
:1086F4000590059B082B3BD0059B0493049B002B02
:1087040036D01F4A4FF4257104980FF0D7F82FE0A4
:108714001D4A1E4BD31ADB081B0443F003031C49F8
:10872400184614F0FFFEFFF7D3FB22E0194B1B7829
:10873400002B0DD0144A154BD31ADB081B0443F04D
:1087440003031549184614F0EDFEFFF7BDFE10E0D3
:108754000D4A0E4BD31ADB081B0443F003030F49E5
:10876400184614F0DFFE04E000BF02E000BF00E0A2
:1087740000BF00BF07B05DF804FB00BF70240020F9
:10878400E4F0030010260020FCEF0300CCEF03000C
:10879400C0F70300EC250020E8F7030010F80300FD
:1087A40000B587B009F052F80590059B0493049B2B
:1087B400002B05D0384A40F2B22104980FF07EF81D
:1087C4006B4605220021184616F018FB9DF8003070
:1087D40043F001038DF800309DF8003023F00203CC
:1087E4008DF800309DF8003023F004038DF800303C
:1087F4009DF8003023F008038DF800309DF8003018
:10880400032262F306138DF800309DF8003023F044
:1088140080038DF8003007238DF8013010238DF884
:1088240002309DF8033043F001038DF803309DF8C6
:10883400033043F002038DF803309DF8043043F015
:1088440001038DF804309DF8043043F002038DF8E1
:1088540004306B46184609F0E3F80590059B039332
:10886400039B002B05D00C4A40F2C12103980FF062
:1088740025F80A4809F0ACF80590059B0293029B81
:10888400002B05D0044A40F2C32102980FF016F8D9
:1088940000BF07B05DF804FBE4F003005D7502005F
:1088A40000B5AFB001ABAC220021184616F0A6FA11
:1088B40002238DF8043001238DF8063006238DF849
:1088C40007300123ADF81430124B069301238DF8C1
:1088D40080304FF49673239344F2506324930E4BE9
:1088E4002A9301AB19460D4803F09CFF2D902D9B54
:1088F4002C932C9B002B05D0094A40F2D7212C98AD
:108904000EF0DCFF0121054803F07FFF00BF2FB00C
:108914005DF804FB78240020ED7F0200102600207F
:10892400E4F0030000B587B001901749032002F07A
:10893400A3FA0590059B0493049B002B05D0134ACE
:108944004FF4387104980EF0B9FF0DF10B0319467A
:10895400002002F015FC0590059B0393039B002B5C
:1089640005D00A4A40F2E22103980EF0A7FF9DF8D1
:108974000B30022B0CBF01230023DAB2019B1A70C7
:1089840000BF07B05DF804FB65860200E4F0030055
:1089940000B583B04FF48041002014F0EDFA01904B
:1089A400019B0093009B002B05D0064A40F2E9216D
:1089B40000980EF083FF14F075FA00BF03B05DF861
:1089C40004FB00BFE4F0030000B583B013F01CFF08
:1089D4000190019B0093009B002B05D0044A40F2B8
:1089E400F12100980EF06AFF00BF03B05DF804FBAC
:1089F400E4F0030008B514F01FFE034683F00103FE
:108A0400DBB2002B01D013F015FF00BF08BD00003E
:108A140000B585B0FFF7BCFF5B4A5C4BD31ADB089B
:108A24001B0443F003035A49184614F07BFDFFF777
:108A3400D5F80DF10E031846FFF774FFFFF7C4FFD6
:108A4400FFF7D4FDFFF70AF9FFF764F9FFF7B0F970
:108A5400FFF726FFFFF704FAFFF7A2FE4D4B4E4A3D
:108A64001A604E4B4FF000021A6000F003F900F058
:108A7400C4F9034683F00103DBB2002B0BD0424A56
:108A8400424BD31ADB081B0443F003034449184642
:108A940014F048FD0AE03C4A3C4BD31ADB081B04A3
:108AA40043F003033F49184614F03CFD364A374B64
:108AB400D31ADB081B0443F003033B49184614F0A4
:108AC40031FD0023ADF80C300023ADF80A3000234B
:108AD400ADF8083002AA0DF10A0103AB184600F004
:108AE40008FA03468DF80F309DF80F30002B14D090
:108AF400254A264BD31ADB081B0443F00300BDF9B7
:108B04000C301A46BDF90A301946BDF908300093F5
:108B14000B46264914F039FD0CE01B4A1B4BD31AB3
:108B2400DB081B0443F001039DF80F20204918467D
:108B340014F006FD14F080FD0346002BFAD14FF427
:108B44007A70FEF795FC104A104BD31ADB081B040D
:108B540043F003031749184614F0E4FC9DF80E3063
:108B64001846FEF7D5FC144B1B78002B08D0134B8A
:108B74001B884FF6FF72934202D113F05BFE01E0B3
:108B8400FFF738FFEFE700BFFCEF0300CCEF030073
:108B940038F8030074240020000096C2542A0020F0
:108BA40048F8030068F803008CF80300A8F80300F1
:108BB400B4F80300CCF80300EC2500207024002056
:108BC40000B583B00190019B0433184600F0F8FE11
:108BD40000BF03B05DF804FB00B589B005900392B3
:108BE4001A460B468DF8133013468DF812300023C5
:108BF4000793059B181D9DF812209DF813109DF8EE
:108C0400283000931346039A01F090F90790079BCC
:108C1400184609B05DF804FB00B587B003900192D3
:108C24001A460B468DF80B3013468DF80A30002394
:108C34000593039B181D9DF80A309DF80B10019AAB
:108C440001F09CF90590059B184607B05DF804FBFC
:108C540082B001900091019B1B78002B03D1044B3F
:108C640001221A7000E000BF00BF02B0704700BFCD
:108C7400592A002000B587B06B4600221A605A605A
:108C84009A60DA601B2300931A2301934FF0CD639B
:108C9400029302238DF80C30694600230A4A0B48DC
:108CA40000F0E8FA0590059B0493049B002B04D084
:108CB400074A342104980EF001FE0448FFF780FFB0
:108CC40000BF07B05DF804FB558C0200F8F8030000
:108CD40008F9030000B587B003460A468DF80F3043
:108CE40013468DF80E309DF80F308DF810309DF836
:108CF4000E308DF811300F4B00221A7004AA002395
:108D04000093022368210C48FFF766FF059000BF1B
:108D1400084B1B78DBB283F00103DBB2002BF7D1E5
:108D2400059B002B01D0002300E00123184607B067
:108D34005DF804FB592A0020F8F8030000B587B059
:108D4400034602918DF80F3013468DF80E301C4BFC
:108D540000221A700DF10F020123009301236821F0
:108D64001848FFF739FF059000BF154B1B78DBB29D
:108D740083F00103DBB2002BF7D1059B002B01D05C
:108D8400002319E00E4B00221A709DF80E30029A4F
:108D940068210C48FFF740FF059000BF084B1B7883
:108DA400DBB283F00103DBB2002BF7D1059B002B70
:108DB40001D0002300E00123184607B05DF804FB4E
:108DC400592A0020F8F8030000B583B00DF1070319
:108DD400012219467520FFF7B1FF0346002B07D087
:108DE4009DF80730682B01D0002302E0012300E046
:108DF4000023184603B05DF804FB00B583B00123DB
:108E04008DF80730FFF7E0FF03461A469DF8073058
:108E14001340002B14BF012300238DF80730FFF704
:108E2400D3FF034683F00103DBB2002B01D0002300
:108E34005BE000216B20FFF74DFF03461A469DF8C7
:108E440007301340002B14BF012300238DF8073093
:108E540007211920FFF73EFF03461A469DF8073005
:108E64001340002B14BF012300238DF80730062183
:108E74001A20FFF72FFF03461A469DF807301340C8
:108E8400002B14BF012300238DF807300021382064
:108E9400FFF720FF03461A469DF807301340002BC6
:108EA40014BF012300238DF8073018211B20FFF77E
:108EB40011FF03461A469DF807301340002B14BFD8
:108EC400012300238DF8073000211C20FFF702FF47
:108ED40003461A469DF807301340002B14BF0123A4
:108EE40000238DF807309DF80730184603B05DF86D
:108EF40004FB00B587B003900291019200238DF822
:108F0400173004AB062219463B20FFF717FF034630
:108F1400002B44D09DF810301BB21B021AB29DF8EE
:108F240011301BB213431AB2039B1A80039BB3F98B
:108F34000030002B04DA039BB3F90020039B1A8052
:108F44009DF812301BB21B021AB29DF813301BB2EB
:108F540013431AB2029B1A80029BB3F90030002B10
:108F640004DA029BB3F90020029B1A809DF81430A6
:108F74001BB21B021AB29DF815301BB213431AB26E
:108F8400019B1A80019BB3F90030002B04DA019B8A
:108F9400B3F90020019B1A8001238DF817309DF846
:108FA4001730184607B05DF804FB000000B585B023
:108FB4000190019B002B0AD0074B43F0010303935C
:108FC400019B9B010293039B0298984700E000BF1A
:108FD40005B05DF804FB00BFB0F9030000B583B031
:108FE4000190019B1B68184600F077F80346002B9C
:108FF40004D10B494FF4F670FEF750FA019B1B683D
:109004001F2B02D84FF0A04306E0019B1B6803F01E
:109014001F02019B1A60034B184603B05DF804FB62
:1090240080F903000003005000B585B0019001AB46
:109034001846FFF7D3FF0390019B012202FA03F3C2
:109044001946039800F035F800BF05B05DF804FB3D
:1090540000B585B0019001AB1846FFF7BFFF039040
:10906400019B012202FA03F31946039800F02BF83E
:1090740000BF05B05DF804FB00B585B0019001ABFD
:109084001846FFF7ABFF0390039800F00AF8024676
:10909400019B22FA03F303F00103184605B05DF8BF
:1090A40004FB82B00190019BD3F81035184602B03E
:1090B400704782B001900091019B009AC3F8082583
:1090C40000BF02B0704782B001900091019B009AEA
:1090D400C3F80C2500BF02B0704784B00190019B17
:1090E4005B09029300230393029B002B03D0029B92
:1090F400012B04D007E04FF0FF33039303E04FF656
:10910400FF73039300BF019B03F01F030193039AB2
:10911400019B22FA03F303F00103002B14BF012384
:109124000023DBB2184604B0704700B585B0019047
:109134004FF0A042019B1B6803F5E07340F20C6101
:1091440042F823104FF0A042019B5B6803F5E073E3
:1091540040F20C6142F82310019B1B681846FFF78C
:1091640063FF019B5B681846FFF75EFF4FF0A04268
:10917400019B1B6803F5E07340F20D6142F8231074
:109184004FF0A042019B5B6803F5E07340F20D6170
:1091940042F823100420FFF709FF002303931EE085
:1091A400019B5B681846FFF767FF0346002B03D05B
:1091B400039B002B17D124E0019B1B681846FFF783
:1091C40047FF0420FFF7F2FE019B1B681846FFF7D8
:1091D4002BFF0420FFF7EAFE039B01330393039B59
:1091E400082BDDDD00E000BF019B5B681846FFF73C
:1091F4002FFF0420FFF7DAFE019B5B681846FFF798
:1092040013FF05B05DF804FB00B589B0019000912F
:10921400009B0793019B1B788DF80C30019B1B79F5
:109224008DF81030019B5B798DF81130019B9B68A0
:10923400DBB28DF81230019BDB68DBB28DF81330A2
:10924400019B1B690593019B5B690693074A079B76
:1092540052F823300649079A51F8221003AA1046FF
:10926400984700BF09B05DF804FB00BF5C2A0020EA
:10927400642A002000B587B0039002910192009304
:10928400039B1B7805931249059B019A41F82320FF
:109294001049059B009A41F82320029B5B7B002B1D
:1092A40002D00298FFF741FF00230493039B181D8B
:1092B400019B002B01D0084A00E00022059B029983
:1092C40000F0DAFA0490049B184607B05DF804FB3A
:1092D4005C2A0020642A00200D92020082B003461A
:1092E4008DF807309DF90730002B0CDB9DF8073013
:1092F40003F01F0205499DF907305B09012000FABC
:1093040002F241F8232000BF02B0704700E100E000
:1093140082B003468DF807309DF90730002B0DDB32
:109324009DF8073003F01F0206499DF907305B09D9
:10933400012000FA02F2603341F8232000BF02B09A
:10934400704700BF00E100E082B0034600918DF851
:1093540007309DF90730002B0ADB009BDAB20C4979
:109364009DF907305201D2B20B4483F800230BE07D
:10937400009BDAB207499DF8073003F00F03043B62
:109384005201D2B20B441A7600BF02B0704700BF3C
:1093940000E100E000ED00E082B00190019B03F0E9
:1093A4006043B3F1005F0CBF01230023DBB2184616
:1093B40002B0704782B00190019B1B0B5BB2184650
:1093C40002B0704700B583B003460A468DF80730F3
:1093D40013468DF806309DF80630012B03D99DF80D
:1093E4000630032B0BD99DF80630042B03D99DF8C6
:1093F4000630072B03D908496B20FEF74FF89DF878
:1094040006209DF9073011461846FFF79DFF00BF5F
:1094140003B05DF804FB00BFB8F9030000B583B0E6
:1094240003468DF807309DF907301846FFF756FFBD
:1094340000BF03B05DF804FB00B583B003468DF8AC
:1094440007309DF907301846FFF762FF00BF03B0ED
:109454005DF804FB82B001900B468DF803309DF853
:109464000330019A134401221A6000BF02B070470E
:1094740084B001900B46ADF80230BDF80230019A79
:10948400134400221A60BDF80230019A13441B6889
:109494000393039B00BF04B0704782B001900B4656
:1094A400ADF80230BDF80230019A13441B68002B5A
:1094B40014BF01230023DBB2184602B0704782B008
:1094C40001900091019B009AC3F8042300BF02B0ED
:1094D400704782B001900091019B009AC3F8082361
:1094E40000BF02B0704782B00190019B0622C3F80E
:1094F400002500BF02B0704782B00190019B00229A
:10950400C3F8002500BF02B0704784B003900291F5
:109514000192039B029AC3F80825039B019AC3F89E
:109524000C2500BF04B0704782B001900091019BEC
:10953400009AC3F8242500BF02B0704784B001909C
:10954400019BD3F8C4340393019B039AC3F8C42446
:10955400039B184604B0704782B001900B468DF807
:1095640003309DF80320019BC3F8882500BF02B097
:10957400704784B0039002910192029A039BC3F84E
:109584004425039B019AC3F8482500BF04B07047E3
:1095940084B0039002910192029A039BC3F834258C
:1095A400039B019AC3F8382500BF04B0704782B00A
:1095B40001900091019B009AC3F8002200BF02B001
:1095C400704782B00190019BD3F84C35184602B025
:1095D400704782B00190019BD3F80032184602B064
:1095E400704782B00190019BD3F83C35184602B015
:1095F400704782B00190019B0122C3F8502500BF3F
:1096040002B0704782B00190019B0022C3F850253C
:1096140000BF02B0704782B00190019B0122C3F8E1
:10962400402500BF02B0704782B00190019B002228
:10963400C3F8402500BF02B07047000000B583B0F6
:109644000190019B1B68184600F04FF80346002B5D
:1096540004D10B494FF4F670FDF720FF019B1B6802
:109664001F2B02D84FF0A04306E0019B1B6803F0B8
:109674001F02019B1A60034B184603B05DF804FBFC
:10968400E8F903000003005000B585B001900846D6
:1096940011461A4603468DF803300B468DF8023006
:1096A40013468DF8013001AB1846FFF7C7FF03904E
:1096B4009DF803209DF802305B001A439DF80130A9
:1096C4009B001A439DF818301B0242EA03019DF8DF
:1096D4001C301B04019A1943039B02F5E07243F802
:1096E400221000BF05B05DF804FB84B00190019B1B
:1096F4005B09029300230393029B002B03D0029B7C
:10970400012B04D007E04FF0FF33039303E04FF63F
:10971400FF73039300BF019B03F01F030193039A9C
:10972400019B22FA03F303F00103002B14BF01236E
:109734000023DBB2184604B0704784B001900323C1
:109744000393019B03F00103002B02D04FF4024367
:109754000393019B03F00203002B02D048F2012380
:109764000393019B03F00403002B02D048F202236D
:109774000393039B184604B07047000000B585B0FE
:109784000190009101238DF80F30009B1B7B032B6C
:1097940056D801A252F823F0159802002D98020021
:1097A400ED970200AD970200009B9B6803F48023B1
:1097B400002B07D00198FFF704FF0246009B1B69AA
:1097C4009A420DD1009B9B6803F48023002B39D16E
:1097D4000198FFF7F6FE0246009B5B699A4231D07E
:1097E40000238DF80F302DE00198FFF7EAFE0246C2
:1097F400009B1B699A4207D10198FFF7F2FE0246CB
:10980400009B5B699A421FD000238DF80F301BE048
:109814000198FFF7D6FE0246009B1B699A4215D0B9
:1098240000238DF80F3011E00198FFF7DAFE0246AD
:10983400009B1B699A420BD000238DF80F3007E080
:1098440000BF06E000BF04E000BF02E000BF00E08C
:1098540000BF9DF80F3083F00103DBB2002B05D06D
:109864000198FFF749FE0198FFF73DFE9DF80F3080
:10987400184605B05DF804FB00B58BB00590049163
:1098840003920293049B002B03D14A49E720FDF77E
:1098940005FE049B1A68049B5B689A4203D1454900
:1098A400E820FDF7FBFD059B1B791A46342302FBD8
:1098B40003F3414A13440893089B93F82D30002B7B
:1098C40003D008230793079B70E0059B1A68059B48
:1098D4001B791946394B53F82130194610460BF0C1
:1098E400ABFF0346002B03D011230793079B5DE0D6
:1098F400089B039A1A60089B029A5A60089B0022EC
:109904009A60089B002283F83020089B002283F889
:109914002F20049B5A7B089B83F83220049B1868F1
:109924000023019306230093032300220021FFF761
:10993400ABFE049B58680023019306230093032382
:1099440000220021FFF7A0FE059B1B680993049BDE
:109954001968049B5B681A460998FFF7D6FD049BB7
:109964009B6819460998FFF7DFFD089B1B68002BCD
:1099740015D0059B1B681846FFF71CFD03461A46C5
:10998400049B1B7B19461046FFF71CFD059B1B68B7
:109994001846FFF70FFD03461846FFF73FFD089BE7
:1099A400012283F82D2000230793079B18460BB050
:1099B4005DF804FB20FA03006C2A00209CFA0300E3
:1099C40000B585B00190019B1B791A46342302FB34
:1099D40003F30D4A13440393039B93F82D30012B97
:1099E40004D00A4940F24F10FDF758FD019B1B6853
:1099F4001846FFF778FD039B022283F82D2000BF51
:109A040005B05DF804FB00BF6C2A002020FA0300B7
:109A140000B583B001900091009B03F00103002B7B
:109A240003D00198FFF7E5FD02E00198FFF7EAFD96
:109A3400009B03F00203002B03D00198FFF7EBFD1A
:109A440002E00198FFF7F0FD00BF03B05DF804FBEE
:109A540030B589B0039002910192009300230793DB
:109A640008238DF81B30039B002283F82E20019BD2
:109A7400DB681846FFF790FC034683F00103DBB272
:109A8400002B03D010230793079BFDE19D49029807
:109A9400FFF71FFD039B93F82F30DBB2002B09D097
:109AA400039B9B6819460298FFF709FD112307934E
:109AB400079BE9E1009B03F00403002B06D1009B04
:109AC40003F01003002B01D1012300E0002303F075
:109AD4000103DAB2039B83F82F20039B019A03F15D
:109AE4000C0415460FCD0FC42B682360009B1B0983
:109AF40003F00103002B14BF01230023DAB2039BFC
:109B040083F83020039B009A1A62019B5B78194604
:109B14000298FFF721FD4FF482710298FFF7A8FC29
:109B24004FF492710298FFF7A3FC4FF4B0710298BE
:109B3400FFF79EFC4FF4A4710298FFF799FC00997B
:109B44000298FFF765FF019B1B78032B00F2DE8070
:109B540001A252F823F000BF8F9C0200D79C0200A0
:109B6400379C02006D9B0200009B03F01003002B46
:109B740004D065494FF4D970FDF790FC009B03F0C5
:109B84000803002B04D0604940F2B310FDF786FCB3
:109B9400009B03F00403002B04D05B494FF4DA70FC
:109BA400FDF77CFC019B1B691846FFF7F5FB034698
:109BB40083F00103DBB2002B03D010230793079B30
:109BC40062E14FF480710298FFF7F1FC019BD968C0
:109BD400019B5B681A460298FFF7CBFC4FF4A8710F
:109BE4000298FFF745FC20210298FFF733FC082177
:109BF4000298FFF72FFC00BF4FF4A8710298FFF7FB
:109C04004CFC034683F00103DBB2002BF4D14FF488
:109C1400A8710298FFF72CFC019B1969019B9B68B2
:109C24001A460298FFF7A5FC039B4FF480229A6022
:109C34006FE0019BD968019B5B681A460298FFF7A5
:109C440098FC019B1B691846FFF7A6FB034683F0AB
:109C54000103DBB2002B03D010230793079B13E10E
:109C6400019B1969019B9B681A460298FFF790FCB7
:109C74004FF484510298FFF79AFC039B02229A60E6
:109C840020210298FFF7E6FB43E0019BD968019B82
:109C94005B681A460298FFF76CFC009B03F02003F4
:109CA400002B09D04FF480710298FFF780FC039BCE
:109CB4004FF480229A6007E04FF400710298FFF796
:109CC40076FC039B02229A6020210298FFF7C2FBD4
:109CD4001FE0019BD968019B5B681A460298FFF755
:109CE40057FC4FF480510298FFF761FC039B02225A
:109CF4009A6000238DF81B3020210298FFF7AAFBFD
:109D040007E000BF02029C0120FA03000723079327
:109D140000BF009B03F00803002B09D1019B1B78B3
:109D2400032B05D09DF81B3019460298FFF792FBD0
:109D3400039B1B68002B1FD0009B03F00403002B24
:109D440002D0039B00229A60009B03F04003002B87
:109D540005D1039B9B6843F00202039B9A60039B1B
:109D64009B6843F40072039B9A60039B9B681946AB
:109D74000298FFF7A4FB86E000238DF81A304FF415
:109D8400A4710298FFF789FB0346002B02D001233C
:109D94008DF81A304FF482710298FFF77EFB034668
:109DA400002B07D04FF482710298FFF761FB012367
:109DB4008DF81A304FF492710298FFF76EFB034648
:109DC400002B38D04FF492710298FFF751FB4FF4F7
:109DD400B0710298FFF761FB03468DF819300298C1
:109DE400FFF7F7FB05909DF8193083F00103DBB210
:109DF400002B04D1059B03F40073002B0AD120210E
:109E04000298FFF727FB14210298FFF723FB002396
:109E14008DF81A309DF81930002B0CD0059B03F4F3
:109E24008073002B07D04FF4A4710298FFF720FB36
:109E340000238DF81A309DF81A3083F00103DBB249
:109E4400002B9CD10298FFF779FB0490039B00221E
:109E540083F82F20049B002B04D00498FFF76DFC9B
:109E6400079010E0009B03F04003002B0BD10399F3
:109E74000298FFF783FC034683F00103DBB2002B57
:109E840001D003230793079B184609B030BD00BFD8
:109E940000B587B0039002910192039B1B79002BBC
:109EA40009D1029B5B68B3F5803F04D2029B9B6897
:109EB400B3F5803F04D31B4940F26A20FDF7EEFA64
:109EC40000230593039B1B791A46342302FB03F3F7
:109ED400154A13440493049B1B68002B08D1029B6E
:109EE4001B78022B04D10F4940F27220FDF7D6FAF9
:109EF400049B1B68002B08D1029B1B78032B04D105
:109F0400084940F27320FDF7C9FA039B1968019BC5
:109F1400029A0498FFF79CFD0590059B184607B02C
:109F24005DF804FB20FA03006C2A002000B58BB016
:109F34000390019200930B468DF80B3000238DF8AB
:109F440014309DF80B308DF81530009B06930023D8
:109F54000793019B0893002309939DF83030002B4D
:109F640001D0202200E0002205AB19460398FFF738
:109F74008FFF034618460BB05DF804FB00B58BB0A9
:109F84000390019200930B468DF80B3001238DF85A
:109F940014309DF80B308DF81530009B0693002388
:109FA4000793019B08930023099305AB00221946EC
:109FB4000398FFF76DFF034618460BB05DF804FBEA
:109FC40030B58BB001900091009B1B68002B04D12D
:109FD400A24940F2C120FDF761FA4FF49271019851
:109FE400FFF75BFA0346002B3ED04FF492710198C1
:109FF400FFF73EFA4FF482710198FFF74EFA0346D9
:10A0040083F00103DBB2002B2ED0009B9B68194622
:10A014000198FFF75EFA009B02229A60009B9B68FE
:10A0240019460198FFF74BFA4FF4B0710198FFF706
:10A0340034FA034683F00103DBB2002B07D1019805
:10A04400FFF7C7FA034603F40073002B07D120215E
:10A054000198FFF7FFF914210198FFF7FBF9009B22
:10A06400012283F82E20F6E04FF482710198FFF765
:10A0740014FA0346002B5DD04FF482710198FFF768
:10A08400F7F9009B1B6A03F04003002B1AD1009BD5
:10A0940093F82E3083F00103DBB2002B12D0009929
:10A0A4000198FFF76BFB0346002B14BF0123002329
:10A0B400DBB283F00103DBB203F00103DAB2009BED
:10A0C40083F82E20009B1B6A03F00403002B79D134
:10A0D400009B04AC03F10C050FCD0FC42B68236067
:10A0E4004FF4B0710198FFF7C3F94FF4AE710198C2
:10A0F400FFF7BEF9009B93F8303083F00103DBB225
:10A10400002B04D1009B93F82E30002B5AD0002151
:10A114000198FFF74CFA009B00229A60504901987D
:10A12400FFF7D7F90198FFF745F903461846FFF7FB
:10A1340083F947E04FF4A4710198FFF799F9009B64
:10A144001B7B002B22D1009B04AC03F10C050FCD2B
:10A154000FC42B682360009B93F8303083F0010315
:10A16400DBB2002B2ED000210198FFF720FA009BD0
:10A1740000229A603A490198FFF7ABF90198FFF77A
:10A1840019F903461846FFF757F91BE04FF400711D
:10A194000198FFF70CFA009B40F202229A603049C2
:10A1A4000198FFF796F9009B9B6819460198FFF701
:10A1B40086F908210198FFF74DF920210198FFF74E
:10A1C40049F948E00198FFF7B9F90990099B03F0B0
:10A1D4000203002B03D001238DF80C301DE0099BF2
:10A1E40003F00403002B03D002238DF80C3014E099
:10A1F400099B03F00103002B03D003238DF80C30DB
:10A204000BE0009B93F82E30002B03D004238DF831
:10A214000C3002E000238DF80C30009B93F83030B2
:10A2240083F00103DBB2002B03D0009B002283F8F0
:10A234002F20009B1B6A03F00403002B04D0009B17
:10A2440093F82E30002B06D0009B1B68009A5168AF
:10A2540003AA104698470BB030BD00BF20FA030094
:10A2640002029C0108B503490348FFF7A9FE00BF99
:10A2740008BD00BF6C2A00200030004000B583B048
:10A284000190019B1B68184600F01FF90346002B40
:10A2940004D10B494FF4F670FDF700F9019B1B68DC
:10A2A4001F2B02D84FF0A04306E0019B1B6803F06C
:10A2B4001F02019B1A60034B184603B05DF804FBB0
:10A2C400A0FA03000003005000B585B001900846D1
:10A2D40011461A4603468DF803300B468DF80230BA
:10A2E40013468DF8013001AB1846FFF7C7FF039002
:10A2F4009DF803209DF802305B001A439DF801305D
:10A304009B001A439DF818301B0242EA03019DF892
:10A314001C301B04019A1943039B02F5E07243F8B5
:10A32400221000BF05B05DF804FB00B585B00390B2
:10A3340000230193002300930023012201210398A9
:10A34400FFF7C2FF00BF05B05DF804FB00B585B0A0
:10A3540003900B468DF80B309DF80B3000220192D0
:10A3640000220092002200210398FFF7ADFF00BFF6
:10A3740005B05DF804FB00B585B0019001AB18464B
:10A38400FFF77CFF0390019B012202FA03F31946B5
:10A39400039800F086F800BF05B05DF804FB00B533
:10A3A40085B0019001AB1846FFF768FF0390019B4D
:10A3B400012202FA03F31946039800F07CF800BF67
:10A3C40005B05DF804FB00B585B0019001AB1846FB
:10A3D400FFF754FF0390039BD3F804350293029BC9
:10A3E400DA43019B012101FA03F31A40039BC3F8EA
:10A3F4000825019B01229A40029B1A40039BC3F843
:10A404000C2500BF05B05DF804FB00B583B00190D6
:10A414000091009B002B03D10198FFF7C0FF02E0DD
:10A424000198FFF7A8FF00BF03B05DF804FB00B577
:10A4340085B0019001AB1846FFF720FF0390039805
:10A4440000F01FF80246019B22FA03F303F0010314
:10A45400184605B05DF804FB00B585B0019001AB6A
:10A464001846FFF70BFF0390039800F012F802461A
:10A47400019B22FA03F303F00103184605B05DF8CB
:10A4840004FB82B00190019BD3F81035184602B04A
:10A49400704782B00190019BD3F80435184602B08E
:10A4A400704782B001900091019B009AC3F808257F
:10A4B40000BF02B0704782B001900091019B009AE6
:10A4C400C3F80C2500BF02B0704784B00190019B13
:10A4D4005B09029300230393029B002B03D0029B8E
:10A4E400012B04D007E04FF0FF33039303E04FF652
:10A4F400FF73039300BF019B03F01F030193039AAF
:10A50400019B22FA03F303F00103002B14BF012380
:10A514000023DBB2184604B07047000000B585B0D4
:10A524000190019B032B03D911493A20FCF7B6FF94
:10A53400104A019B13441B781846FFF78DFF03460E
:10A54400002B14BF012300238DF80F309DF80F302A
:10A55400002B14BF01230023DBB283F00103DBB221
:10A5640003F00103DBB2184605B05DF804FB00BF3D
:10A57400D0FA030044FB030000B583B00190019BB3
:10A58400032B03D907494120FCF788FF064A019BA6
:10A5940013441B7800211846FFF737FF00BF03B0B0
:10A5A4005DF804FBD0FA030044FB030000B583B05C
:10A5B4000190019B032B03D907494720FCF76EFF49
:10A5C400064A019B13441B7801211846FFF71DFF1F
:10A5D40000BF03B05DF804FBD0FA030044FB0300A2
:10A5E40000B583B00023019305E00198FFF7DEFF77
:10A5F400019B01330193019B032BF6D900BF00BFDC
:10A6040003B05DF804FB00B583B00023019305E0BB
:10A614000198FFF7B1FF019B01330193019B032BC9
:10A62400F6D900BF00BF03B05DF804FB00B583B0EA
:10A634000190019B032B03D907495F20FCF72EFFF0
:10A64400064A019B13441B781846FFF7BCFE00BF63
:10A6540003B05DF804FB00BFD0FA030044FB030021
:10A6640000B583B00023019309E0094A019B134418
:10A674001B781846FFF759FE019B01330193019B98
:10A68400032BF2D9FFF7ACFF00BF03B05DF804FB66
:10A6940044FB030000B585B00190019B032B03D953
:10A6A4001149AC20FCF7FAFE104A019B13441B78B5
:10A6B4001846FFF7BCFE0346002B14BF01230023FA
:10A6C4008DF80F309DF80F30002B14BF01230023A9
:10A6D400DBB283F00103DBB203F00103DBB2184603
:10A6E40005B05DF804FB00BFD0FA030048FB03008B
:10A6F40000B583B0002301930AE0094A019B134487
:10A704001B7803211846FFF721FE019B01330193B7
:10A71400019B032BF1D900BF00BF03B05DF804FB1C
:10A7240048FB030084B001904FF0FF3302930023F1
:10A7340003930DE00A4A039B13441B781A46019BBA
:10A74400934202D1039B029305E0039B01330393DD
:10A75400039B032BEED9029B184604B0704700BF3D
:10A7640048FB030000B583B00190019B03F0010393
:10A77400002B01D0FFF774FF019B03F00203002BB1
:10A7840001D0FFF7B5FF00BF03B05DF804FB00B5CF
:10A7940083B00190019B032B04D80198FFF77AFF43
:10A7A400034600E00023184603B05DF804FB0000F4
:10A7B40000B587B003460A468DF8073013468DF876
:10A7C400063000238DF81730002304939DF80730DA
:10A7D4001846FFF7A7FF0490049B032B62D89DF84B
:10A7E4000630022B52D0022B5CDC002B31D0012B23
:10A7F40058D13549049A13465B0013440B441B7823
:10A804008DF817303049049A13465B0013440B4407
:10A8140001331B78002B0ED02C4B2D4A4FF4804172
:10A8240018460DF073FC0390039B002B03D1284AB8
:10A834009DF8073013702449049A13465B001344AF
:10A844000B4402331978234A049B13440A461A70B2
:10A8540028E01E4B18460DF0B1FC1E4A049B13441D
:10A8640019781948049A13465B00134403440233CD
:10A874001B78994215D11449049A13465B0013447A
:10A884000B4402331B788DF817300AE00E49049A02
:10A8940013465B0013440B4401331B788DF81730C7
:10A8A40000E000BF9DF81730002B09D00A4B1B684D
:10A8B400002B05D0084B1B689DF8172010469847BD
:10A8C40000BF07B05DF804FBB02A0020C0240020BC
:10A8D400BC2A0020C02A0020AC2A002000B583B086
:10A8E4000190019B1B7802211846FFF761FF00BF0E
:10A8F40003B05DF804FB000000B583B00C4B1B787B
:10A90400002B0FD00023019308E0019B022B02D0FF
:10A914000198FFF74BFE019B01330193019B032B2D
:10A92400F3D901E0FFF75CFE00BF03B05DF804FB60
:10A93400A82A00202DE9D04F92B003468DF83F306D
:10A944000023119300231093CC4B1B78002B04D0CD
:10A95400CA4A00231370FFF7CFFF9DF83F30172B2F
:10A9640000F23F8201A252F823F000BFD1A90200F5
:10A97400E9A90200E9A9020085AA020021AB0200AC
:10A984009DAB020031AC020051AC020061AC02008C
:10A994008DAC0200ABAC0200C9AC0200E7AC020013
:10A9A400F5AC0200F5AC0200F5AC0200F5AC020017
:10A9B400F5AC020089AD020097AD0200ABAD020018
:10A9C400BFAD0200D9AD0200D9AD0200FFF794FF7C
:10A9D400AB4B18460DF0F2FB1190AA4A9DF83F309C
:10A9E4001370FFE10020FFF799FD0346002B0DD003
:10A9F4000020FFF7DBFD9DF83F30022B02D14FF41E
:10AA0400E16301E04FF47A6310930BE00020FFF759
:10AA1400B3FD9DF83F30022B01D1C82301E04FF470
:10AA2400C8731093974A9DF83F301370944C109B51
:10AA34000022009301924FF000024FF00003DDE981
:10AA440000673946CB03314643EA51433146CA03D2
:10AA540012F57A71029143F1000303934FF4FA6201
:10AA64004FF00003DDE9020114F0B6F802460B468C
:10AA740013460022194620460DF048FB1190B1E11F
:10AA84000020FFF74BFD0346002B0DD00020FFF7FD
:10AA94008DFD9DF83F30032B02D14FF4487301E044
:10AAA4004FF47A6310930BE00020FFF765FD9DF8E7
:10AAB4003F30032B01D1C82301E04FF4C873109336
:10AAC400704A9DF83F3013706D4C109B0022049324
:10AAD40005924FF000024FF00003DDE904673946A8
:10AAE400CB03314643EA51433146CA0312F57A7126
:10AAF400069143F1000307934FF4FA624FF0000309
:10AB0400DDE9060114F068F802460B4613460022FC
:10AB1400194620460DF0FAFA119063E10020FFF780
:10AB2400FDFC0346002B06D00020FFF73FFD4FF449
:10AB34007A63109305E00020FFF71EFD4FF4C873FD
:10AB44001093504A9DF83F3013704D4C109B0022D7
:10AB54009A4693464FF000024FF000034FEACB337E
:10AB640043EA5A434FEACA3212F57A71089143F123
:10AB7400000309934FF4FA624FF00003DDE9080182
:10AB840014F02AF802460B461346002219462046C2
:10AB94000DF0BCFA119025E10020FFF7BFFC03463D
:10ABA400002B0CD00020FFF701FD9DF83F30052B52
:10ABB40001D1C82301E04FF47A6310930BE0002025
:10ABC400FFF7DAFC9DF83F30052B01D1C82301E0E3
:10ABD4004FF4C87310932B4A9DF83F301370284CE0
:10ABE400109B0022984691464FF000024FF000035C
:10ABF4004FEAC93343EA58434FEAC83212F57A712F
:10AC04000A9143F100030B934FF4FA624FF00003EF
:10AC1400DDE90A0113F0E0FF02460B461346002269
:10AC2400194620460DF072FA1190DBE00020FFF780
:10AC3400FDFC144A9DF83F301370114B002240F282
:10AC4400666118460DF062FA1190CBE00020FFF720
:10AC540093FC0C4A9DF83F301370C3E0074B01226C
:10AC64001A700120FFF7E2FC054B002240F26661F6
:10AC740018460DF04BFA1190B4E000BFA12A002051
:10AC840080240020A02A0020594B01221A700120A0
:10AC9400FFF7CCFC574B00224FF4005118460DF03F
:10ACA40035FA11909EE0524B01221A700120FFF7F1
:10ACB400BDFC504B002240F2666118460DF026FAA6
:10ACC40011908FE04A4B01221A700120FFF7AEFC6D
:10ACD400484B00224FF4005118460DF017FA11901A
:10ACE40080E0FFF790FC444A9DF83F30137079E010
:10ACF400424B18460DF062FA11909DF83F30C3F1B3
:10AD040011031093109B002B35D0119B002B32D1D3
:10AD1400109B012B28D9394C109B9BB21A46C8238F
:10AD240002FB03F3DA171E4617464FF000024FF0FA
:10AD34000003FB0343EA5643F20312F57A710C91C4
:10AD440043F100030D934FF4FA624FF00003DDE981
:10AD54000C0113F041FF02460B461346002219462C
:10AD640020460DF0D3F911900220FFF705FC244B87
:10AD740001221A7036E00220FFF718FC204B002253
:10AD84001A702FE0FFF7B8FD1B4A9DF83F3013708F
:10AD940028E0FFF7B1FD0020FFF7EEFB164A9DF80F
:10ADA4003F3013701EE0FFF7A7FD0120FFF7E4FB1F
:10ADB400114A9DF83F30137014E0FFF79DFD002009
:10ADC400FFF7DAFB0120FFF7D7FB0B4A9DF83F3072
:10ADD400137007E0FFF717FC074A9DF83F30137024
:10ADE40000E000BF119B184612B0BDE8D08F00BF31
:10ADF400A12A002080240020A02A0020A0240020D2
:10AE0400A82A002000B583B00190074B1B6803F00B
:10AE14000103002B04D0054B1B781846FFF78AFD6D
:10AE240000BF03B05DF804FBA42A0020A02A002080
:10AE340000B583B001900220FFF7F8FB00BF03B018
:10AE44005DF804FB00B585B003468DF80730002398
:10AE54000393084B1B6803F00103002B05D09DF8F6
:10AE640007301846FFF766FD0390039B184605B0AC
:10AE74005DF804FBA42A002000B585B00190009180
:10AE8400002303932A4A019B13602A4A009B136000
:10AE9400019B03F00203002B2AD00023029308E055
:10AEA40001220121029800F055F80390029B01331E
:10AEB4000293029B032B02D8039B002BF0D0039B2D
:10AEC400002B06D140F2333204211B480CF0F6FB70
:10AED4000390039B002B02D10CF078FC0390039B9E
:10AEE400002B05D1154A002115480DF0D5F8039023
:10AEF400019B03F00103002B14D00120FFF732FC67
:10AF0400039B002B05D10F4A00210F480DF0C4F814
:10AF14000390039B002B05D10C4A01210C480DF032
:10AF2400BBF80390039B184605B05DF804FB00BF13
:10AF3400A42A0020AC2A002058FB0300E1A8020048
:10AF440054FB030009AE02004CFB030035AE0200C3
:10AF540050FB030084B001900B468DF80330134678
:10AF64008DF8023000230393019B032B3CD89DF8FA
:10AF74000230012B0BD19DF80330012B04D1019B2E
:10AF8400DBB20E33DBB200E000238DF802309DF813
:10AF94000330022B0FD0022B23DC002B16D0012B05
:10AFA4001FD11449019A13465B0013440B449DF8C6
:10AFB40002201A701AE00F49019A13465B001344E9
:10AFC4000B4401339DF802201A700FE00949019ADD
:10AFD40013465B0013440B4402339DF802201A709D
:10AFE40004E00723039301E007230393039B18461C
:10AFF40004B07047B02A002000B583B001220021BC
:10B004000020FFF7A7FF0190019B002B04D0019BB8
:10B01400072B01D0019B1CE0072202210120FFF72E
:10B0240099FF0190019B002B04D0019B072B01D0B9
:10B03400019B0EE0042202210020FFF78BFF019008
:10B04400019B002B04D0019B072B01D0019B00E046
:10B054000023184603B05DF804FB00B583B0012259
:10B0640002210020FFF776FF0190019B002B04D002
:10B07400019B072B01D0019B1CE007220221012028
:10B08400FFF768FF0190019B002B04D0019B072B65
:10B0940001D0019B0EE00A2200210020FFF75AFF95
:10B0A4000190019B002B04D0019B072B01D0019B35
:10B0B40000E00023184603B05DF804FB00B583B03C
:10B0C40001900120FFF763FB0346002B03D0019B93
:10B0D40002221A700CE00020FFF759FB0346002BF4
:10B0E40003D0019B0B221A7002E0019B00221A700C
:10B0F40000BF03B05DF804FB00B585B0019000917A
:10B10400019B1B88102B02D0112B18D02FE01A4B57
:10B114001B68002B0DD1FFF76FFF0390039B002BDF
:10B1240007D0164B1B68002B03D0144B1B680398E5
:10B134009847114B1B6801330F4A136017E00E4BFD
:10B144001B68013B0C4A13600B4B1B68002B0DD191
:10B15400FFF783FF0390039B002B07D0074B1B686B
:10B16400002B03D0054B1B680398984700BF00BF12
:10B1740005B05DF804FB00BFC82A0020C42A0020E3
:10B1840000B585B001900091002303930A4A019B06
:10B194001360009B002B02D00098FFF78FFF074B32
:10B1A4001B68002B02D1FFF758FF0390039B18463E
:10B1B40005B05DF804FB00BFC42A0020C82A0020A3
:10B1C400BFF34F8F00BF064BDB6803F4E062044912
:10B1D400044B1343CB60BFF34F8F00BF00BFFDE7A9
:10B1E40000ED00E00400FA0582B0164B1B680193E1
:10B1F400154B1B680093019B082B1FD1009B052B4B
:10B204001AD801A252F823F025B2020029B2020092
:10B214002DB2020031B2020035B2020039B202008E
:10B2240001230CE001230AE0012308E0012306E0E6
:10B23400012304E0012302E0012300E00023184677
:10B2440002B07047300100103401001082B0164B78
:10B254001B680193154B1B680093019B082B1FD19E
:10B26400009B052B1AD801A252F823F089B20200E0
:10B274008DB2020091B2020095B2020099B20200AE
:10B284009DB2020001230CE001230AE0012308E03F
:10B29400012306E0012304E0012302E0012300E08E
:10B2A4000023184602B0704730010010340100102A
:10B2B40082B0164B1B680193154B1B680093019BCE
:10B2C400082B1FD1009B052B1AD801A252F823F09A
:10B2D400EDB20200F1B20200F5B20200F9B20200CE
:10B2E400FDB2020001B3020001230CE000230AE0D6
:10B2F400002308E0002306E0002304E0002302E02A
:10B30400002300E00023184602B07047300100100B
:10B314003401001082B0164B1B680193154B1B6857
:10B324000093019B082B1FD1009B052B1AD801A267
:10B3340052F823F051B3020055B3020059B302008E
:10B344005DB3020061B3020065B3020001230CE0A7
:10B3540000230AE0002308E0002306E0002304E0C1
:10B36400002302E0002300E00023184602B07047E7
:10B37400300100103401001082B0164B1B68019399
:10B38400154B1B680093019B082B1FD1009B052BB9
:10B394001AD801A252F823F0B5B30200B9B30200DF
:10B3A400BDB30200C1B30200C5B30200C9B30200B9
:10B3B40001230CE000230AE0002308E0002306E058
:10B3C400002304E0002302E0002300E000231846E9
:10B3D40002B07047300100103401001082B0164BE7
:10B3E4001B680193154B1B680093019B082B1FD10D
:10B3F400009B052B1AD801A252F823F019B40200BD
:10B404001DB4020021B4020025B4020029B40200D4
:10B414002DB4020001230CE000230AE0002308E01D
:10B42400002306E0002304E0002302E0002300E000
:10B434000023184602B07047300100103401001098
:10B4440082B0164B1B680193154B1B680093019B3C
:10B45400082B1FD1009B052B1AD801A252F823F008
:10B464007DB4020081B4020085B4020089B40200F4
:10B474008DB4020091B4020001230CE001230AE020
:10B48400012308E0012306E0012304E0012302E094
:10B49400012300E00023184602B070473001001079
:10B4A4003401001082B0164B1B680193154B1B68C6
:10B4B4000093019B082B1FD1009B052B1AD801A2D6
:10B4C40052F823F0E1B40200E5B40200E9B402004A
:10B4D400EDB40200F1B40200F5B4020000230CE064
:10B4E40000230AE0002308E0002306E0012304E02F
:10B4F400012302E0012300E00023184602B0704754
:10B50400300100103401001008B5FFF7CBFF0346EB
:10B51400002B07D04FF010234FF08042D3F80832AD
:10B52400C2F8583500BF08BD00BF044BD3F800343F
:10B53400002BFAD000BF00BF704700BF00E00140FD
:10B5440000B583B00190054A019BC2F80435FFF7AA
:10B55400EBFF00BF03B05DF804FB00BF00E0014057
:10B56400024B034A1A6000BF704700BFE02400206A
:10B574000090D00308B5FFF737FE0346002B0ED02A
:10B584004FF080430022C3F80C214FF08043002287
:10B59400C3F810214FF080430022C3F83825FFF789
:10B5A40055FE0346002B76D04FF08053734AD3F8F0
:10B5B4000434C2F820354FF08053704AD3F808346D
:10B5C400C2F824354FF080536C4AD3F80C34C2F8D7
:10B5D40028354FF08053694AD3F81034C2F82C351B
:10B5E4004FF08053654AD3F81434C2F830354FF025
:10B5F4008053624AD3F81834C2F834354FF080537C
:10B604005E4AD3F81C34C2F840354FF080535B4A8D
:10B61400D3F82034C2F844354FF08053574AD3F856
:10B624002434C2F848354FF08053544AD3F82834B0
:10B63400C2F84C354FF08053504AD3F82C34C2F83A
:10B6440050354FF080534D4AD3F83034C2F8543556
:10B654004FF08053494AD3F83434C2F860354FF080
:10B664008053464AD3F83834C2F864354FF08053D7
:10B67400424AD3F83C34C2F868354FF080533F4A0D
:10B68400D3F84034C2F86C354FF080533B4AD3F8BA
:10B694004434C2F87035FFF70BFE0346002B02D08A
:10B6A400374B384A1A60FFF735FE0346002B03D0A8
:10B6B400354BFB22C3F81825FFF75EFE0346002B2B
:10B6C4000AD0324B1B6823F00F02314B1B6803F086
:10B6D4000F032E4913430B60FFF780FE0346002B34
:10B6E40003D02C4B4FF400721A60FFF7A9FE0346F7
:10B6F400002B0DD04FF08043D3F8003403F0010346
:10B70400002B05D04FF080436FF00102C3F80024F2
:10B71400214BD3F88830204A43F47003C2F88830B0
:10B72400BFF34F8F00BFBFF36F8F00BFFFF7ECFE77
:10B734004FF01023D3F80032002B05DB4FF0102319
:10B74400D3F80432002B15DA0120FFF7F9FE4FF08D
:10B7540010231222C3F80022FFF7E6FE4FF0102355
:10B764001222C3F80422FFF7DFFE0020FFF7E8FEF1
:10B77400FFF726FDFFF7F4FE00BF08BD00C0004040
:10B784008C5600404881030000F00040E40E004065
:10B79400580200104096024000ED00E06DDF704753
:10B7A40000BF184679DF704700BF18467DDF704739
:10B7B40000BF184664DF704700BF184682B00346D6
:10B7C4000091ADF80630BDF80630DAB2009B1A706D
:10B7D400BDF806301B0A9AB2009B0133D2B21A702C
:10B7E4000223184602B0704700B589B00390029155
:10B7F4001346ADF80630029B1B8803F10902BDF81D
:10B8040006309A4201D90C2353E004AB1846FFF7E3
:10B81400C5FF0790079B0693069B002B01D0069B50
:10B8240047E0029B1B881A46039B134408221A70A4
:10B83400029B1B8801339AB2029B1A80029B1B88CD
:10B844001A46039B13441B221A70029B1B88013364
:10B854009AB2029B1A80029B1B881A46039B981873
:10B8640004AB01330622194613F096FA029B1B8897
:10B8740006339AB2029B1A809DF8103023F001031C
:10B88400DBB2002B07D1029B1B881A46039B13448F
:10B8940000221A7006E0029B1B881A46039B13447D
:10B8A40001221A70029B1B8801339AB2029B1A80F0
:10B8B4000023184609B05DF804FB00B589B0039075
:10B8C40002910192ADF80230039B1B78012B05D144
:10B8D400039B5B78002B01D1072391E0019B1B881C
:10B8E4009A1CBDF802309A420ED8039B1B78012B98
:10B8F4000CD1019B1B881A46039B5B7813449A1C4A
:10B90400BDF802309A4201D90C2379E0019B1B88CF
:10B91400BDF80220D31A9BB2023BADF81C30BDF82F
:10B924001C30ADF81230019B1B880233029A134479
:10B934000DF1120211461846FFF738FF0690069BD8
:10B944000593059B002B01D0059B59E0039B1B78B5
:10B95400022B06D0039B5B781A46BDF812309A423C
:10B9640009D3BDF81230BDF81C209A4203D3092331
:10B974008DF81F3016E008238DF81F30039B1B78C9
:10B98400012B0BD1039B5B781A46BDF81C30934204
:10B9940004D3039B5B78ADF8123003E0BDF81C3090
:10B9A400ADF81230BDF81230FE2B01D90C2327E07C
:10B9B400BDF81230DAB2019B1B881946029B0B4476
:10B9C4000132D2B21A70019B1B8801339AB2019BD7
:10B9D4001A80019B1B881A46029B13449DF81F2062
:10B9E4001A70019B1B8801339AB2019B1A80019B38
:10B9F4001A88BDF8123013449AB2019B1A800023AE
:10BA0400184609B05DF804FB00B589B003900291B3
:10BA14001346ADF80630029B1B881A1DBDF806308C
:10BA24009A4201D90C233AE00DF116031846FFF7A8
:10BA3400B9FE0790079B0693069B002B01D0069B3B
:10BA44002DE0029B1B881A46039B134403221A70A1
:10BA5400029B1B8801339AB2029B1A80029B1B88AB
:10BA64001A46039B134419221A70029B1B88013344
:10BA74009AB2029B1A80BDF81620029B1B881946B5
:10BA8400039B0B4419461046FFF798FE03461A46DB
:10BA9400029B1B8813449AB2029B1A800023184607
:10BAA40009B05DF804FB84B0029101921A46034682
:10BAB4008DF80F301346ADF80C30019B1B88DA1C4F
:10BAC400BDF80C309A4201D90C2328E0019B1B8855
:10BAD4001A46029B134402221A70019B1B880133ED
:10BAE4009AB2019B1A80019B1B881A46029B13443D
:10BAF40001221A70019B1B8801339AB2019B1A80A0
:10BB0400019B1B881A46029B13449DF80F201A7050
:10BB1400019B1B8801339AB2019B1A8000231846AB
:10BB240004B0704784B0029101921A4603468DF81E
:10BB34000F301346ADF80C30019B1B88DA1CBDF89E
:10BB44000C309A4201D90C2328E0019B1B881A4629
:10BB5400029B134402221A70019B1B8801339AB280
:10BB6400019B1A80019B1B881A46029B13440A22DC
:10BB74001A70019B1B8801339AB2019B1A80019BA6
:10BB84001B881A46029B13449DF80F201A70019BD0
:10BB94001B8801339AB2019B1A800023184604B013
:10BBA400704700B58FB0039001930B468DF80B30AE
:10BBB40013468DF80A3000238DF83330109B1B8810
:10BBC400ADF8303000230D9370E0039B5A680D9B51
:10BBD4009B001A4405AB106818600DF11B0105ABFE
:10BBE40000221846FFF7E6FD0A900A9B0993099B79
:10BBF400002B01D0099B7BE09DF81B309DF80A20A7
:10BC04009A4250D19DF83330002B01D0002300E03C
:10BC140002238DF82330109B1B881A469DF81B3095
:10BC24001A449DF823301A44BDF844309A4201DD89
:10BC34000C235DE09DF8333083F00103DBB2002B6D
:10BC440016D0109B1B8801339AB2109B1A80109B4C
:10BC54001B881A46019B13449DF80B201A70109BF5
:10BC64001B8801339AB2109B1A8001238DF833305C
:10BC7400109B1B881A46019B1A440DF11B0105AB4E
:10BC84001846FFF797FD0A900A9B0793079B002B22
:10BC940001D0079B2CE0109B1B889DF81B201344AC
:10BCA4009AB2109B1A800D9B01330D93039B1B8842
:10BCB4001A460D9B934288DB9DF83330002B16D037
:10BCC400109B1A88BDF83030D31A9BB2013BADF8F3
:10BCD4002E30BDF82E30FF2B01D90C2308E0BDF81F
:10BCE4003030019A1344BDF82E20D2B21A700023CA
:10BCF40018460FB05DF804FB00B58BB005900393B4
:10BD04000B468DF8133013468DF812309DF813103E
:10BD1400BDF8343001930C9B0093039B02220598D9
:10BD2400FFF73FFF0990099B0893089B002B01D064
:10BD3400089B14E09DF81210BDF8343001930C9B5D
:10BD44000093039B10220598FFF72BFF0990099B92
:10BD54000793079B002B01D0079B00E000231846A4
:10BD64000BB05DF804FB82B00190019B1B88052B8E
:10BD74000AD9019B1B88B3F5486F07D9019B1B881F
:10BD84004FF6FF72934201D0072325E0019B5B88A5
:10BD9400052B0AD9019B5B88B3F5486F07D9019B32
:10BDA4005B884FF6FF72934201D0072314E0019B96
:10BDB4001B884FF6FF7293420DD0019B5B884FF6B0
:10BDC400FF72934207D0019B1A88019B5B889A42B9
:10BDD40001D9072300E00023184602B0704700B5DC
:10BDE40087B0039002910192ADF80230019B1B8849
:10BDF4009A1DBDF802309A4201D90C234BE00398F6
:10BE0400FFF7B1FF0590059B0493049B002B01D021
:10BE1400049B40E0019B1B881A46029B13440522A5
:10BE24001A70019B1B8801339AB2019B1A80019BF3
:10BE34001B881A46029B134412221A70019B1B880A
:10BE440001339AB2019B1A80039B1A88019B1B88B9
:10BE54001946029B0B4419461046FFF7AFFC0346F4
:10BE64001A46019B1B8813449AB2019B1A80039BB8
:10BE74005A88019B1B881946029B0B44194610469D
:10BE8400FFF79CFC03461A46019B1B8813449AB295
:10BE9400019B1A800023184607B05DF804FB00B527
:10BEA40087B0039002910192ADF80230039B9B8806
:10BEB40002330593019B1B881A46059B13449A1C65
:10BEC400BDF802309A4201D90C2353E0059BFE2BA6
:10BED40001D90C234EE0059BDAB2019B1B8819465D
:10BEE400029B0B440132D2B21A70019B1B880133AE
:10BEF4009AB2019B1A80019B1B881A46029B134429
:10BF0400FF221A70019B1B8801339AB2019B1A808D
:10BF1400039B1A88019B1B881946029B0B441946F4
:10BF24001046FFF74BFC03461A46019B1B8813443B
:10BF34009AB2019B1A80039B9B88002B19D0039B08
:10BF44009B68002B01D1072314E0019B1B881A4630
:10BF5400029B9818039B9968039B9B881A4612F0CE
:10BF64001BFF019B1A88039B9B8813449AB2019B75
:10BF74001A800023184607B05DF804FB00B589B0A9
:10BF8400039002910192ADF80230039B9B6A002B4F
:10BF940001D1072371E000238DF81F3065E0039B76
:10BFA400996A9DF81F2013465B0013449B000B44C1
:10BFB4000693069B9B8802330593059BFE2B01D9B0
:10BFC4000C235AE0059BDAB2019B1B881946029B9D
:10BFD4000B440132D2B21A70019B1B8801339AB20E
:10BFE400019B1A80019B1B881A46029B134416224C
:10BFF4001A70019B1B8801339AB2019B1A80069B1D
:10C004001A88019B1B881946029B0B44194610464B
:10C01400FFF7D4FB03461A46019B1B8813449AB2CC
:10C02400019B1A80069B9B88002B19D0069B9B685A
:10C03400002B01D1072320E0019B1B881A46029B99
:10C044009818069B9968069B9B881A4612F0A4FED2
:10C05400019B1A88069B9B8813449AB2019B1A8001
:10C064009DF81F3001338DF81F30039B93F82C305B
:10C074009DF81F209A4292D30023184609B05DF818
:10C0840004FB00B595B0059004910392002313932B
:10C09400039B1B88ADF84A30039B00221A80059B42
:10C0A40093F82D30002B0ED0BDF84A301A46039970
:10C0B4000498FFF799FB1390139B1193119B002B8A
:10C0C40001D0119BD8E0059B9B78002B0ED0BDF8C6
:10C0D4004A301A4603990498FFF796FC1390139B71
:10C0E4001093109B002B01D0109BC5E0059BDB78BF
:10C0F400002B10D0059BDB7858B2BDF84A30039A68
:10C104000499FFF7D0FC1390139B0F930F9B002B04
:10C1140001D00F9BB0E0059B5B68002B11D0059B01
:10C124005B6893F90000BDF84A30039A0499FFF75D
:10C13400F9FC1390139B0E930E9B002B01D00E9BC6
:10C144009AE0059B1B89002B14D0059B03F1080082
:10C15400BDF84A300193039B0093049B06220221FD
:10C16400FFF7CAFD1390139B0D930D9B002B01D079
:10C174000D9B81E0059B1B8A002B14D0059B03F1CA
:10C184001000BDF84A300193039B0093049B0722DF
:10C194000321FFF7B1FD1390139B0C930C9B002B11
:10C1A40001D00C9B68E0059B1B8B002B14D0059BD6
:10C1B40003F11800BDF84A300193039B0093049BDC
:10C1C40015221421FFF798FD1390139B0B930B9BDF
:10C1D400002B01D00B9B4FE0059B1B6A002B0FD05B
:10C1E400059B186ABDF84A30039A0499FFF7F7FDD6
:10C1F4001390139B0A930A9B002B01D00A9B3BE0EC
:10C20400059B5B6A002B0FD0059B586ABDF84A302A
:10C21400039A0499FFF743FE1390139B0993099B18
:10C22400002B01D0099B27E0059B93F82C30002BB1
:10C234000ED0BDF84A30039A04990598FFF79EFE84
:10C244001390139B0893089B002B01D0089B13E0C9
:10C25400059B1B78002B0ED0BDF84A30039A049935
:10C264000598FFF72AFB1390139B0793079B002B5A
:10C2740001D0079B00E0139B184615B05DF804FB42
:10C2840086B0039001921A460B46ADF80A30134665
:10C294008DF80930039B002B02D0019B002B01D1A8
:10C2A40000235BE00023ADF816300CE0BDF8163037
:10C2B400039A13441B781A46BDF8163013449BB2F4
:10C2C4000133ADF81630BDF816305A1CBDF80A30EB
:10C2D4009A420FDA019B1B88BDF816209A42E5D3D7
:10C2E400BDF816300133039A13441B789DF80920D6
:10C2F4009A42DBD1BDF81620BDF80A309A4201D328
:10C3040000232BE0BDF816300233ADF81430BDF82D
:10C314001630039A13441B78002B07D0BDF816304F
:10C32400039A13441B78013B9BB200E00023ADF851
:10C334001230BDF81230002B08D0BDF81420BDF81F
:10C3440012301A44BDF80A309A4201DD002305E098
:10C35400019BBDF814201A80BDF81230184606B0AF
:10C36400704700B585B001900B46ADF80230134616
:10C374008DF801300023ADF80C309DF8013003AA8C
:10C38400BDF802100198FFF77BFF0346ADF80E30AD
:10C39400BDF80E30002B01D1002304E0BDF80C30B1
:10C3A4001A46019B1344184605B05DF804FB72DF7E
:10C3B400704700BF184673DF704700BF184674DF2C
:10C3C400704700BF184682B00190019B93F8303447
:10C3D400184602B0704784B00190002303930AE02A
:10C3E400019A039B13441B78002B01D0012306E020
:10C3F400039B01330393039B052BF1D900231846B8
:10C4040004B0704782B003468DF807309DF80730BA
:10C414005A1C074B83FB02135910D317C91A0B4636
:10C424009B000B44D11ACBB2184602B0704700BF30
:10C434006766666682B001900091009BDB7B012BEE
:10C4440004D1009B9A88019BA3F8242400BF02B066
:10C45400704700B585B001900091019B002283F8DC
:10C464002E24009B9A88019BB3F824349A4216D157
:10C47400019B1B7983F00103DBB2002B0FD0012158
:10C48400019800F0ABFA0390039B002B07D0019BAB
:10C494009B6B002B03D0019B9B6B0398984700BFB9
:10C4A40005B05DF804FB00B585B001900091009BD8
:10C4B4001B88262B1ED1009B1B7A012B03D0009BCB
:10C4C4001B7A022B17D1019B9B781846FFF79AFF22
:10C4D40003461946019800F081FA0390039B002B50
:10C4E40009D0019B9B6B002B05D0019B9B6B039890
:10C4F400984700E000BF05B05DF804FB00B585B0C7
:10C5040001900B468DF80330019B03F22743184634
:10C51400FFF761FF03468DF80F309DF80330013BB0
:10C52400032B33D801A252F823F000BF41C5020007
:10C5340065C5020079C5020085C50200019B9B798F
:10C54400002B0DD0019B93F8243083F00103DBB260
:10C55400002B05D09DF80F30002B01D0012316E0ED
:10C56400019BDB79002B05D09DF80F30002B01D007
:10C5740002230CE0019B1B7A002B01D0032306E06D
:10C58400019B5B7A002B01D0042300E000231846B2
:10C5940005B05DF804FB00BF82B001900091019BDF
:10C5A400012283F83120019B0022C3F82024019B3F
:10C5B40003F22642009B5A60009B00229A60009B73
:10C5C40002221A70009B80229A810023184602B02E
:10C5D400704782B001900091019B022283F83120C0
:10C5E400019B93F82430002B03D0009B07221A7080
:10C5F40002E0009B03221A70019B1B699AB2009B04
:10C604009A81019B0022C3F82024019B03F2264255
:10C61400009B5A60019BDA68009B9A6000231846CD
:10C6240002B0704700B583B00190019B5B79002B89
:10C634000FD0019B93F82E3483F00103DBB2002B5F
:10C6440007D00198FFF7BFFE0346002B01D001235A
:10C6540000E0002303F00103DBB2184603B05DF8E9
:10C6640004FB00B585B001900B468DF80330019BA7
:10C67400D3F81004019BB3F8143401221946FFF7D0
:10C6840070FE0390039B002B03D0039B9DF80320B3
:10C694001A70019B03F15400019B03F58261019B15
:10C6A4003C331A46FFF783FE0346184605B05DF88F
:10C6B40004FB00B585B001900091019B5A69009B71
:10C6C4009A60019B9B699AB2009B9A81019B93F8A3
:10C6D4002430002B04D0019B062283F83C2003E085
:10C6E400019B012283F83C200198FFF79BFF03463E
:10C6F400002B13D0009B02221A7504210198FFF726
:10C70400B0FF0390039B0293029B002B01D0029B7A
:10C714000FE0019B052283F8312003E0019B0322F3
:10C7240083F83120019B03F58262019BC3F8202426
:10C734000023184605B05DF804FB00B585B00190F0
:10C744000091019BDA69009B9A60019B1B6A9AB273
:10C75400009B9A81019B93F82430002B04D0019B09
:10C76400062283F83C2003E0019B012283F83C204D
:10C774000198FFF757FF0346002B13D0009B0222BA
:10C784001A7504210198FFF76CFF0390039B029331
:10C79400029B002B01D0029B0FE0019B062283F831
:10C7A400312003E0019B042283F83120019B03F52F
:10C7B4008262019BC3F820240023184605B05DF86B
:10C7C40004FB82B00190019B9B78002B06D0019B57
:10C7D40093F82030002B01D0002300E001231846F9
:10C7E40002B0704784B00190019B93F82430002B71
:10C7F40003D0EE23ADF80E3002E01F23ADF80E3067
:10C80400BDF80E30184604B0704782B001900B4654
:10C814008DF80330019B9DF8032083F8302000BF7E
:10C8240002B0704730B587B001900091009B002B97
:10C8340002D0019B002B01D10E23B8E0009B78337A
:10C844001846FFF7BEFF034683F00103DBB2002B5B
:10C8540001D00723ABE0019B00229A70019A009B50
:10C86400141D03F178050FCD0FC40FCD0FC495E847
:10C87400070084E80700019B002283F83020009B16
:10C88400D3F8A420019B5A63009BD3F8A820019BF2
:10C894009A63019B4FF6FF72A3F82424019B03F5CE
:10C8A4008262019BC3F82024019B03F226430722E2
:10C8B4000021184612F0A2FA019B1B7883F00103B1
:10C8C400DBB2002B03D0019BFF2283F85420019B91
:10C8D40003F15502019BC3F810240198FFF782FF6E
:10C8E40003461A46019BA3F814240098019B03F104
:10C8F4005501019B03F214431A46FFF7C2FB05904E
:10C90400059B0493049B002B01D0049B4FE0019BE7
:10C9140003F23122019BC3F818240198FFF762FF48
:10C9240003461A46019BA3F81C24009B03F13C0018
:10C93400019BD3F81814019B03F21C431A46FFF71A
:10C94400A0FB0590059B0393039B002B01D0039B45
:10C954002DE0019B012283F85120019B9B699AB22F
:10C96400019BA3F84820019B012283F83C20019BF2
:10C9740000221A64019B002283F85020019B5A690B
:10C98400019B5A64019B03F15400019B3C331A46FA
:10C994000021FFF70CFD0590059B0293029B002BE1
:10C9A40001D0029B03E0019B01221A70059B1846EB
:10C9B40007B030BD82B00190019B1B68012B07D0EA
:10C9C400019B1B68022B03D0019B1B68042B01D124
:10C9D400012300E00023184602B0704700B585B07B
:10C9E40001900B468DF80330019B1B7883F0010303
:10C9F400DBB2002B01D0082309E1019B9DF8032041
:10CA04009A70019B03F2264307220021184612F074
:10CA1400F5F9019B9B79002B03D0019B9B78012B9B
:10CA24000FD0019BDB79002B03D0019B9B78012B5A
:10CA340007D0019BDB79002B14D0019B9B78022B40
:10CA440010D1019B5B6B002B08D0019B012283F862
:10CA54002D24019B5B6B0820984703E0019B002277
:10CA640083F82D249DF8033019460198FFF746FDFD
:10CA740003461A46019B9A70019B5B6B002B20D0E6
:10CA8400019B9B78032B03D0019B9B78042B18D12B
:10CA9400019B5B79002B14D0019B93F82E3483F017
:10CAA4000103DBB2002B0CD0019B002283F830245D
:10CAB400019B012283F82F24019B5B6B072098477D
:10CAC40003E0019B002283F82F24019B3C331822AE
